:020000040000FA
:0400000080316228C1
:100008007E1480318B1C09280A2820280130F70724
:100018000030F83D22000D0CF000F00C700C013996
:10002800F0000130F006F00DF00DF00D0D0870062F
:10003800F73970068D008B102000911D2428252883
:1000480060282100911D29282A2860282400941A54
:100058002E282F2838281419322833283828F50153
:10006800F6011108F2005E28941E3B283C2843281C
:1000780014193F2840284328110815165E28141D16
:10008800462847285E281108F3004C30F40074080D
:10009800750786008701010891007508013EF00088
:1000A8000030763DF10003307005F5000030710531
:1000B800F6001516200091117E1009008031642881
:1000C800F501F601F701F8012000CA01CB01CC01C6
:1000D800CD01CE01CF017E1020008331532B2000AB
:1000E80031088039BB003135C100B01F7C287D281C
:1000F8007E28411441080319822883289228410A3E
:10010800031D8728882890280030B1000030B000EF
:100118000030AF000030AE00B0179A280030B100B0
:100128000030B0000030AF000030AE003508803934
:10013800BB063535BC00B41FA228A328A4283C144C
:100148003C080319A828A928B8283C0A031DAD288B
:10015800AE28B6280030B5000030B4000030B30037
:100168000030B200B417C0280030B5000030B40029
:100178000030B3000030B2003C080319C428C52879
:10018800CA284108031DC928CA28D3280030B1004D
:100198000030B0000030AF000030AE00AD2A2E08AD
:1001A800A00034088331AE23803120002108C70025
:1001B8002008C6004608B600B701B801B9013908D9
:1001C800C0003808BF003708BE003608BD00470821
:1001D800B600B701B801B9013908C5003808C4002C
:1001E8003708C3003608C2002F08A000330883313F
:1001F800AE23803120002108C7002008C600460829
:10020800B600B701B801B9013608BD073708BE3DC9
:100218003808BF3D3908C03D4708B600B701B801E6
:10022800B9013608C2073708C33D3808C43D390844
:10023800C53D3008A00032088331AE23803120004C
:100248002108C7002008C6004608B600B701B80153
:10025800B9013608BD073708BE3D3808BF3D390823
:10026800C03D4708B600B701B801B9013608C20752
:100278003708C33D3808C43D3908C53D0830BD3589
:10028800BE0DBF0DC00D890B43292F08A0003208F1
:100298008331AE23803120002108C7002008C60022
:1002A8004608BD074708BE3D0030BF3DC03D2E088B
:1002B800A00033088331AE23803120002108C70015
:1002C8002008C6004608BD074708BE3D0030BF3DB0
:1002D800C03D0830BD35BE0DBF0DC00D890B6E2960
:1002E8002E08A00032088331AE2380312000210877
:1002F800C7002008C6004608BD074708BE3D0030B5
:10030800BF3DC03D2F08A00034088331AE238031A3
:1003180020002108C7002008C6004608C207470871
:10032800C33D0030C43DC53D3008A00033088331CB
:10033800AE23803120002108C7002008C6004608E7
:10034800C2074708C33D0030C43DC53D3008A00082
:1003580034088331AE23803120002108C7002008EB
:10036800C6004608B6004708B700B801B90108300A
:10037800B635B70DB80DB90D890BBC293608C207BB
:100388003708C33D3808C43D3908C53D3D08B600A7
:100398003E08B7003F08B8004008B9001830B93621
:1003A800B80CB70CB60C890BD3293608C207370826
:1003B800C33D3808C43D3908C53D0830BD35BE0DBC
:1003C800BF0DC00D890BE22941083C07B600B701F3
:1003D800B70D3608823EC600FF30373DC7000B2AEE
:1003E8000130C235C30DC40DC50D890BF529C01FD9
:1003F800FE29FF29002A42140130BD35BE0DBF0D6C
:10040800C00D890B012AFF30C607FF30C73DC41F46
:100418000E2A0F2AF429BC01C01F132A142A302AD5
:10042800FF303D05B600FF303E05B700FF303F0501
:10043800B8007F304005B90039083804370436045D
:100448000319272A282A2B2A0130BC00302A421CEB
:100458002E2A2F2A302A282A3C080319342A352A1A
:100468005B2A0130C2070030C33DC43DC53D451C71
:100478003E2A3F2A5B2A4208B6004308B7004408D0
:10048800B8004508B9000130BA00B937B80CB70C44
:10049800B60CBA0B492A3908C5003808C400370811
:1004A800C3003608C2000130C6070030C73D470800
:1004B800803AB60080303602031D642AFF304602B7
:1004C800031C672A682A722A7F302000C500803002
:1004D800C4000030C3000030C200A32A200047082F
:1004E800803AB60080303602031D7C2A013046026D
:1004F80003187F2A802A8B2A00302000C50000308C
:10050800C4000030C3000030C200BB01A32A200091
:100518004608C100FF30C205FF30C3057F30C4055F
:100528000030C505411C992A9A2A9B2AC4174108FC
:10053800B6000130B636890B9E2A3608C5003B083E
:10054800C5044508B1004408B0004308AF0042089C
:10055800AE0008002000A80028080319B42AB52A0C
:10056800C92AA31FB82AB92AC92A2009AA00210919
:10057800AB002209AC002309AD00AA0A0319AB0A93
:100588000319AC0A0319AD0AD12A2308AD002208C1
:10059800AC002108AB002008AA002308220421048B
:1005A8002004031DD82AD92AE22A0030A3000030EB
:1005B800A2000030A1000030A000522B9630A90004
:1005C800EE2A0130A9070130AD36AC0CAB0CAA0CF1
:1005D800890BE82AFE302D05031DF32AF42AE52AA3
:1005E800042B0130A9070130AA070030AB3DAC3D10
:1005F800AD3D0130AD36AC0CAB0CAA0C890BFE2A14
:10060800FF302D05031D092B0A2BF52A142B013069
:10061800A9020130AA35AB0DAC0DAD0D890B0E2B1F
:10062800AC1B172B182B1E2B0230290203181D2B6D
:100638001E2B0B2B2918212B222B2A2BFF30AA0526
:10064800FF30AB057F30AC05FF30AD050310A90CBA
:100658002908A400A501A601A7011830A435A50DF5
:10066800A60DA70D890B322B2408AA042508AB0474
:100678002608AC042708AD0428080319442B452B89
:100688004A2BA31F482B492B4A2BAD172D08A30033
:100698002C08A2002B08A1002A08A000080060303E
:1006A800210099008331D22383310B168B1021004E
:1006B8008C108D1123008D1122008C148D1506309D
:1006C8002000C9001330C800AD30890B692BC80B56
:1006D800692BC90B692B003222008C108D11063052
:1006E8002000C9001330C800AD30890B792BC80B26
:1006F800792BC90B792B00323E302000B100323003
:10070800B0002D30AF000E30AE007708A00078089A
:10071800A100890D893B8909A200A300013082311B
:10072800AE22833120002308B5002208B400210836
:10073800B3002008B20080317320833120003108D3
:10074800CF003008CE002F08CD002E08CC00802B1B
:10075800803162282000A800A401A5012008A20079
:10076800A3012208A6002308A700281CBC2BBD2B28
:10077800C12B2608A4072708A53D0130A635A70DDB
:10078800890BC22B0310A80C2808031DCC2BCD2BDA
:10079800B92B2508A1002408A00008002100911504
:1007A800200091110B178B1721008D140D16363070
:1007B8002400950096019401843092009516080053
:0807C8000E342D3432343E34AE
:020000040001F9
:04000E00C439FF1FD3
:00000001FF
