:020000040000FA
:0400000080314628DD
:100008007E1480312000911D0A280B2844282100E5
:10001800911D0F28102844282400941A1428152804
:100028001C281419182819281C281108F00042281F
:10003800941E1F28202839281419232824283928F1
:100048001108F20022008C1402307206031D2D28BC
:100058002E2830288C1436287203031D342835289E
:1000680036288C10240015164228141D3C283D28DB
:1000780042281108F1004230910015162000911114
:100088007E100900803148287E10200080314C28DD
:1000980060302100990080317120803121008C105E
:1000A80022008C140630F4001330F300AE30890BB4
:1000B8005B28F30B5B28F40B5B2822008C100630BE
:1000C800F4001330F300AE30890B6828F30B68286E
:1000D800F40B68286E2880314628210091152000ED
:1000E80091110B178B1721008D140D163630240033
:0E00F800950096019401D230920095160800F2
:020000040001F9
:04000E00C439FF1FD3
:00000001FF
