:020000040000FA
:0400000080317328B0
:100008007E1480318B1C09280A2820280130F80723
:100018000030F93D22000D0CF000F00C700C013995
:10002800F0000130F006F00DF00DF00D0D0870062F
:10003800F73970068D008B102000911D2428252883
:1000480071282100911D29282A2871282400941A32
:100058002E282F2838281419322833283828F60152
:10006800F7011108F2006F28941E3B283C285428F9
:1000780014193F28402854281108F5000230750645
:10008800031D472848284A28FA01522803307506D4
:10009800031D4F28502852280130FA0015166F28E2
:1000A800141D572858286F281108F3004C30F40005
:1000B8007408760786008701010891007608013EDA
:1000C800F0000030773DF10003307005F600003095
:1000D8007105F7001516200091117E100900803176
:1000E8007528F601F701F801F901FA012000CA01A3
:1000F800CB01CC01CD01CE01CF017E102000833190
:10010800652B200031088039BB003135C100B01F94
:100118008E288F289028411441080319942895287F
:10012800A428410A031D99289A28A2280030B10062
:100138000030B0000030AF000030AE00B017AC287F
:100148000030B1000030B0000030AF000030AE0029
:1001580035088039BB063535BC00B41FB428B5282E
:10016800B6283C143C080319BA28BB28CA283C0AFC
:10017800031DBF28C028C8280030B5000030B400CF
:100188000030B3000030B200B417D2280030B500F8
:100198000030B4000030B3000030B2003C0803194E
:1001A800D628D728DC284108031DDB28DC28E528C9
:1001B8000030B1000030B0000030AF000030AE00B9
:1001C800BF2A2E08A00034088331C72380312000BD
:1001D8002108C7002008C6004608B600B701B801C4
:1001E800B9013908C0003808BF003708BE00360812
:1001F800BD004708B600B701B801B9013908C50004
:100208003808C4003708C3003608C2002F08A00009
:1002180033088331C723803120002108C700200814
:10022800C6004608B600B701B801B9013608BD07CF
:100238003708BE3D3808BF3D3908C03D4708B600FD
:10024800B701B801B9013608C2073708C33D3808F5
:10025800C43D3908C53D3008A00032088331C723A2
:10026800803120002108C7002008C6004608B600D3
:10027800B701B801B9013608BD073708BE3D3808CF
:10028800BF3D3908C03D4708B600B701B801B901FC
:100298003608C2073708C33D3808C43D3908C53D8C
:1002A8000830BD35BE0DBF0DC00D890B55292F086F
:1002B800A00032088331C723803120002108C700FD
:1002C8002008C6004608BD074708BE3D0030BF3DB0
:1002D800C03D2E08A00033088331C7238031200099
:1002E8002108C7002008C6004608BD074708BE3DCC
:1002F8000030BF3DC03D0830BD35BE0DBF0DC00D3F
:10030800890B80292E08A00032088331C723803149
:1003180020002108C7002008C6004608BD07470876
:10032800BE3D0030BF3DC03D2F08A00034088331DA
:10033800C723803120002108C7002008C6004608CE
:10034800C2074708C33D0030C43DC53D3008A00082
:1003580033088331C723803120002108C7002008D3
:10036800C6004608C2074708C33D0030C43DC53D26
:100378003008A00034088331C723803120002108C9
:10038800C7002008C6004608B6004708B700B801ED
:10039800B9010830B635B70DB80DB90D890BCE299E
:1003A8003608C2073708C33D3808C43D3908C53D7B
:1003B8003D08B6003E08B7003F08B8004008B9003D
:1003C8001830B936B80CB70CB60C890BE5293608C5
:1003D800C2073708C33D3808C43D3908C53D083051
:1003E800BD35BE0DBF0DC00D890BF42941083C0772
:1003F800B600B701B70D3608823EC600FF30373D5C
:10040800C7001D2A0130C235C30DC40DC50D890BA7
:10041800072AC01F102A112A122A42140130BD359A
:10042800BE0DBF0DC00D890B132AFF30C607FF3064
:10043800C73DC41F202A212A062ABC01C01F252A1D
:10044800262A422AFF303D05B600FF303E05B70098
:10045800FF303F05B8007F304005B900390838043F
:10046800370436040319392A3A2A3D2A0130BC00D8
:10047800422A421C402A412A422A3A2A3C080319A5
:10048800462A472A6D2A0130C2070030C33DC43DC1
:10049800C53D451C502A512A6D2A4208B60043081A
:1004A800B7004408B8004508B9000130BA00B937A8
:1004B800B80CB70CB60CBA0B5B2A3908C50038085B
:1004C800C4003708C3003608C2000130C607003030
:1004D800C73D4708803AB60080303602031D762AA9
:1004E800FF304602031C792A7A2A842A7F302000AA
:1004F800C5008030C4000030C3000030C200B52AF7
:1005080020004708803AB60080303602031D8E2A44
:10051800013046020318912A922A9D2A00302000B1
:10052800C5000030C4000030C3000030C200BB0169
:10053800B52A20004608C100FF30C205FF30C305B8
:100548007F30C4050030C505411CAB2AAC2AAD2A52
:10055800C4174108B6000130B636890BB02A3608F0
:10056800C5003B08C5044508B1004408B00043086D
:10057800AF004208AE0008002000A80028080319B0
:10058800C62AC72ADB2AA31FCA2ACB2ADB2A2009A4
:10059800AA002109AB002209AC002309AD00AA0A70
:1005A8000319AB0A0319AC0A0319AD0AE32A230895
:1005B800AD002208AC002108AB002008AA002308DF
:1005C800220421042004031DEA2AEB2AF42A00301D
:1005D800A3000030A2000030A1000030A000642B6E
:1005E8009630A900002B0130A9070130AD36AC0CBC
:1005F800AB0CAA0C890BFA2AFE302D05031D052B1E
:10060800062BF72A162B0130A9070130AA0700305C
:10061800AB3DAC3DAD3D0130AD36AC0CAB0CAA0CDE
:10062800890B102BFF302D05031D1B2B1C2B072BB3
:10063800262B0130A9020130AA35AB0DAC0DAD0D4A
:10064800890B202BAC1B292B2A2B302B023029029B
:1006580003182F2B302B1D2B2918332B342B3C2B15
:10066800FF30AA05FF30AB057F30AC05FF30AD0584
:100678000310A90C2908A400A501A601A701183098
:10068800A435A50DA60DA70D890B442B2408AA0493
:100698002508AB042608AC042708AD04280803196C
:1006A800562B572B5C2BA31F5A2B5B2B5C2BAD17A0
:1006B8002D08A3002C08A2002B08A1002A08A000DE
:1006C80008006030210099008331EB2383310B1639
:1006D8008B1021008C110C128C108D1123008D11A0
:1006E80022008C148D1506302000C9001330C80074
:1006F800AD30890B7D2BC80B7D2BC90B7D2B0032B0
:1007080022008C108D113E302000B1003230B00034
:100718002D30AF000E30AE007808A0007908A10097
:10072800890D893B8909A200A30001308231C022CA
:10073800833120002308B5002208B4002108B30043
:100748002008B20080318520833120003108CF0095
:100758003008CE002F08CD002E08CC007A0C2200DD
:10076800031C8C1103188C157A092000C800C80EC8
:1007780022000C0820004806EF39480622008C00A9
:10078800872B803173282000A800A401A501200828
:10079800A200A3012208A6002308A700281CD52B25
:1007A800D62BDA2B2608A4072708A53D0130A63545
:1007B800A70D890BDB2B0310A80C2808031DE52BBC
:1007C800E62BD22B2508A1002408A0000800210050
:1007D8009115200091110B178B1721008D140D1600
:1007E80036302400950096019401843092009516C5
:0A07F80008000E342D3432343E3474
:020000040001F9
:04000E00C439FF1FD3
:00000001FF
